:100000000C9434000C943E000C943E000C943E0082
:100010000C943E000C943E000C943E000C943E0068
:100020000C943E000C943E000C943E000C943E0058
:100030000C943E000C943E000C943E000C943E0048
:100040000C943E000C943E000C943E000C943E0038
:100050000C943E000C943E000C943E000C943E0028
:100060000C943E000C943E0011241FBECFEFD8E04C
:10007000DEBFCDBF0E9485010C94AC020C94000041
:10008000CF93DF9381E084B988E387B980EE8AB9A2
:1000900018B887E08BB980918100836080938100DC
:1000A00080917A00806880937A0010927C000E9490
:1000B0009000C5E0D0E00E94B00087EA91E6019789
:1000C000F1F700C000000E94B20087EA91E60197B4
:1000D000F1F700C000002197209769F7DF91CF91D9
:1000E000089518161906DCF420E030E028984FEB4C
:1000F00054ED61E0415050406040E1F700C0000025
:10010000289A4FE758E361E0415050406040E1F7E2
:1001100000C000002F5F3F4F2817390739F70895B7
:100120005D984498289A459843980895892B29F01A
:100130005E988BB1806A8BB908955F988BB18066A9
:100140008BB908955D980895439A0895439808954A
:10015000449A08954498089545980895459A0895B5
:1001600028980895289A089540E04999FECF21E003
:10017000240F30E02817390771F0E3ECF9E03197EC
:10018000F1F700C00000499BFECF4E5F242F30E006
:100190002817390754F30895CF93DF93EB010E949A
:1001A0009600CE010E94B4005D98DF91CF91089532
:1001B000CF92DF92EF92FF9280917A0080648093D9
:1001C0007A0080917A0086FDFCCF60917800809162
:1001D000790070E0782B80E090E00E9447026B018C
:1001E0007C012EEA37E041E054E40E9443021816F5
:1001F00074F128982FEB34ED41E02150304040401D
:10020000E1F700C00000289A8FE798E321E08150D1
:1002100090402040E1F700C0000028983FEB44EDFB
:1002200081E0315040408040E1F700C00000289A52
:100230009FE728E331E0915020403040E1F700C0D3
:10024000000082E0FF90EF90DF90CF9008952CE5C2
:100250003FE842E054E4C701B6010E94A80287FFCC
:100260002AC027E636EE43E154E4C701B6010E94F6
:10027000A80218160CF043C083E090E028982FEBFA
:1002800034ED41E0215030404040E1F700C0000033
:10029000289A2FE738E341E0215030404040E1F711
:1002A00000C000000197009749F781E0FF90EF90B0
:1002B000DF90CF9008952DEC3CEC4EE054E4C70164
:1002C000B6010E94430287FFCCCF28984FEB84ED04
:1002D00091E0415080409040E1F700C00000289A32
:1002E0002FE738E341E0215030404040E1F700C0C3
:1002F000000083E0FF90EF90DF90CF90089580E0C2
:10030000FF90EF90DF90CF900895CF93DF931F92EF
:10031000CDB7DEB70E944000489BFECF0E94A400EC
:100320004A9974C00E94A2000E94AE008FE493EC30
:100330000197F1F700C000000E94A8009FE7E8E3E2
:10034000F1E09150E040F040E1F700C000000E9471
:10035000AC002FE53AEE80E0215030408040E1F7DC
:1003600000C0000081E090E00E9496009FE5E7E673
:10037000F1E09150E040F040E1F700C000000E9441
:10038000A2000E94AE002FE73AE186E02150304003
:100390008040E1F700C000000E94D80089830E94DD
:1003A000AC009FE7E8E3F1E09150E040F040E1F776
:1003B00000C000008981823009F459C0833009F4FB
:1003C00044C0813081F10E94AE009FE7E8E3F1E094
:1003D0009150E040F040E1F700C000000E94AA0008
:1003E0008FE19EE40197F1F700C000000E94AC008D
:1003F0009FE5EAEEF0E09150E040F040E1F700C008
:1004000000000E94A6000E94900086CF80E090E04D
:100410000E94960083EC99E00197F1F700C000007C
:100420004A99F4CF7FCF64E070E081E090E00E94D1
:10043000CC000E94AE002FE738E381E0215030402D
:100440008040E1F700C00000C9CF68E070E081E0C3
:1004500090E00E94CC000E94AE009FE7E8E3F1E04C
:100460009150E040F040E1F700C00000B7CF2FE727
:1004700038E381E0215030408040E1F700C00000C7
:1004800066E070E0E4CF40D008F481E00895E8949D
:1004900009C097FB3EF490958095709561957F4FCC
:1004A0008F4F9F4F9923A9F0F92F96E9BB2793957A
:1004B000F695879577956795B795F111F8CFFAF48A
:1004C000BB0F11F460FF1BC06F5F7F4F8F4F9F4FBB
:1004D00016C0882311F096E911C0772321F09EE819
:1004E000872F762F05C0662371F096E8862F70E07F
:1004F00060E02AF09A95660F771F881FDAF7880F59
:100500009695879597F90895990F0008550FAA0BAE
:10051000E0E8FEEF16161706E807F907C0F0121616
:100520001306E407F50798F0621B730B840B950B19
:1005300039F40A2661F0232B242B252B21F408956E
:100540000A2609F4A140A6958FEF811D811D08950B
:0C055000DBDF08F48FEF0895F894FFCF74
:00000001FF
